:020000040800F2
:100000000050002035220008AD020008AF020008B1
:10001000B1020008B3020008B502000800000000A9
:10002000000000000000000000000000F91F0008B0
:10003000B702000800000000A5200008E120000829
:100040004D2200084D2200084D2200084D220008D4
:100050004D2200084D2200084D2200084D220008C4
:100060004D2200084D2200084D2200084D220008B4
:100070004D2200084D2200084D2200084D220008A4
:100080004D2200084D2200084D2200084D22000894
:100090004D2200084D2200084D2200084D22000884
:1000A0004D2200084D2200084D2200084D22000874
:1000B0004D2200084D2200084D2200084506000888
:1000C0004D2200084D220008190700084D220008A3
:1000D0004D220008390A00084D2200084D22000870
:1000E0004D2200084D2200084D22000800000000AB
:1000F0000000000000000000000000000000000000
:1001000000000000000000005FF808F110B501F0E9
:10011000D9F9022001F0B6FA002001F01DFA4FF4DF
:10012000806001F023FA002001F02AFA012001F09A
:10013000E9F9002001F0F8F900204FF4601101F016
:10014000E7F9012001F0F0F9392001F087FA0028E1
:10015000FAD0022001F0EEF901F0F6F90828FBD1FF
:100160000121054801F06EFA45F21D000121BDE8AC
:10017000104001F05BBA00BF010020007FB502F023
:100180006BF8FFF7C3FF4FF4C06001F033FC00F0E1
:10019000E3FB374B002200219A82DA821A835A83CA
:1001A0009A83DA839A85DA851A86A3F840209A64BE
:1001B000DA641A655A65A3F85820A3F85A20A3F800
:1001C0005C201A66A3F8642064221962596299625D
:1001D00059639963D9635964A3F8662000F0E2FB80
:1001E000244800F0C9FB00F093F9012814BF22480D
:1001F000224800F0C1FB00F053FB2148002400F02E
:10020000BBFB00F035FC1F4800F0B6FB03251E4980
:100210004FF4807223461D480126009501940294F4
:10022000039401F067FC1A494FF480722346194881
:10023000009601940294039401F05CFC164980221C
:1002400023461648009601940294039401F052FC50
:100250001349802223461348009501940294039485
:1002600001F048FC01F020FD0F4800F085FBFEE79F
:10027000142F0020C88C0008D48C0008E38C0008E0
:10028000EE8C0008FD8C00081B8D0008D10D0008C5
:10029000228D0008E90F0008278D0008F90F0008DB
:1002A0002B8D000831100008308D00087047FEE7E4
:1002B000FEE7FEE7FEE77047024B16221A604FF09A
:1002C000FF307047CC2F0020FEE70120704701F07F
:1002D000BEBF00000A4B70B51A6806460AB9094A43
:1002E0001A601C68FFF7F3FFA3199842044D01D26E
:1002F00001F0D2FF2B6820469E192E6070BD00BF12
:10030000A0050020D02F002018819A81013047F6E7
:10031000FF7292FBF0F059816FF04042013110B54D
:1003200092FBF1F100245C601C80D881196110BD42
:10033000401A80B230B583B2B2F90E501CB2AC4252
:1003400006DC6D42AC4206DB1489604380B204E0F7
:1003500047F6FF7001E048F2010054681BB21B1918
:100360001469A34203DD54606FF0404309E0644226
:10037000A34202DA54600F4B03E0B2F90A40536023
:100380006343B2F900409589641A6C43118000B24E
:1003900022B28018C31848BF7F33074ADB1193424B
:1003A000ACBF1846104647F6FF729042A8BF1046F1
:1003B00000B230BD010000C00180FFFF10B505484C
:1003C000012100F0B2FF0028F9D00248BDE810403A
:1003D00000F0A8BF0030014070B506460C461A4830
:1003E00010211546002200F0B6FE184846F0C00164
:1003F00000F096FFFFF7E2FF1448022100F095FF9E
:100400000028F9D0002610E01048FF2100F088FFF6
:100410000E48012100F089FF0028F9D00B4800F0B8
:1004200081FF013604F8010BF6B2AE42ECD3802115
:10043000064800F07AFF0128F9D003481021012274
:10044000BDE8704000F087BE000801400030014068
:1004500010B5102104460022154800F07CFE154816
:1004600044F0800100F05CFFFFF7A8FF1148022173
:1004700000F05BFF0028F9D00E48FF2100F050FF8C
:100480000C48012100F051FF0028F9D0094800F084
:1004900049FFC4B28021074800F047FF0128F9D086
:1004A00003481021012200F056FE204610BD00BF77
:1004B000000801400030014070B5002205460C469E
:1004C0001148102100F047FE1048294600F028FF8F
:1004D000FFF774FF0D48022100F027FF0028F9D034
:1004E0000A48214600F01CFFFFF768FF80210748FB
:1004F00000F01BFF0128F9D0034810210122BDE8BC
:10050000704000F028BE00BF0008014000300140EC
:1005100030B587B010230324384805A9ADF814304E
:100520008DF817308DF8164000F0C2FD4023ADF86D
:1005300014303248042305A918258DF817308DF89A
:10054000164000F0B5FDA0232C4805A9ADF81430E5
:100550008DF816408DF8175000F0AAFD4CF20003FC
:10056000ADF814302648482305A98DF817308DF8CA
:10057000164000F09DFD0023ADF800304FF482736B
:10058000ADF802300023ADF804300223ADF8063098
:100590000123ADF808304FF40073ADF80A300023A2
:1005A000ADF80E30174807236946ADF81030ADF8A6
:1005B0000C5000F087FE0121124800F0A4FE00203C
:1005C000FFF746FFE52815D1B8380821FFF774FF7B
:1005D00031200B21FFF770FF1E20FF21FFF76CFF7A
:1005E0001F20FA21FFF768FF20200621FFF764FF94
:1005F000012000E0002007B030BD00BF000801402E
:10060000001001400030014013B50622044669463F
:100610003220FFF7E1FE9DF801209DF8003043EA0B
:10062000022323809DF803209DF8023043EA022331
:1006300063809DF805209DF8043043EA0223A380DF
:100640001CBD000010B52C4800F021FF2B4B984238
:1006500041D006D83F3B98420AD00133984249D155
:1006600042E0274B984216D00233984242D119E01B
:10067000244B1A7862B11A78022A06D11E48D0217A
:10068000023ABDE8104000F0FABE1A78012A31D1D2
:100690001948D021F5E71C4B17481978BDE81040E0
:1006A00000F0E8BE174B1C785CB9184B124819785B
:1006B00000F0E0FE1048012100F0C4FE144B1C7055
:1006C00010BD1A78022A15D10B4801211970BDE816
:1006D000104000F0AABE084800F0CEFE0D4B0022EC
:1006E00018700B4B1A7010BD03480121BDE8104073
:1006F00000F0A8BE10BD00BF005400404000030041
:10070000820007007C2F0020A5050020A605002000
:10071000A7050020A405002010B50648064900F0F2
:10072000BEFE28B103480449BDE8104000F0C5BE34
:1007300010BD00BF005400400004000138B5094C52
:1007400022785AB9084D0123237028700748027097
:10075000074A08481170194600F067FE2378012BFC
:10076000FCD038BDA7050020A50500207C2F002067
:10077000A60500200054004010B5094C23784BB961
:10078000084B012121701870074B02221A7007488C
:1007900000F04BFE2378012BFCD0054B187810BDE0
:1007A000A7050020A50500207C2F00200054004054
:1007B000A40500202DE9F84F04461D20FFF7DCFFBB
:1007C00083461E20FFF7D8FF82461F20FFF7D4FF85
:1007D00081462020FFF7D0FF80462120FFF7CCFF85
:1007E00007462220FFF7C8FF134B4AEA0B2A1D6871
:1007F00006460FFA8AF007F0A1FC296807F0EAFB29
:1008000007F0B6FE48EA092820800FFA88F007F0C2
:1008100095FC696807F0DEFB07F0AAFE46EA0726AA
:10082000608030B207F08AFCA96807F0D3FB07F0BC
:100830009FFEA080BDE8F88F802F00200000000000
:1008400013B56B4683E80300BDF90000144607F0BA
:1008500043F811A3D3E9002307F0A4F807F064FBE1
:100860002060BDF9020007F037F80BA3D3E900239D
:1008700007F098F807F058FB6060BDF9040007F036
:100880002BF805A3D3E9002307F08CF807F04CFB05
:10089000A0601CBDAFF300802E443D3377E3533F8F
:1008A00070B5012186B0294800F0B2FD4BF6FF7308
:1008B000ADF806303023ADF808304FF48043ADF882
:1008C0000C30234B06A9002441F8183D1F48694607
:1008D000ADF80440ADF80A4000F02EFD01221B489F
:1008E0004FF4C06100F0BBFDC02305A9ADF8143082
:1008F00003261C2317488DF817308DF8166000F07A
:10090000D7FB1F238DF8103004A81E3B8DF8133041
:100910008DF811608DF8124001F076F83E208021AC
:10092000FFF70CFF15202146FFF708FF16201E21B8
:10093000FFF704FF17202146FFF700FF3E20214666
:100940002546FFF7FBFE06B070BD00BF0054004017
:10095000A0860100000C014007B514238DF8073074
:100960000448113B01A9ADF804308DF8063000F0C1
:100970009FFB0EBD000C014038B5054600240AE07F
:10098000074800F071FC0648402100F075FC002883
:10099000F9D00134E4B2295D0029F1D138BD00BF9E
:1009A0000038014030B5182387B08DF813304FF46C
:1009B0000073ADF8103004A903231D488DF81230E0
:1009C00000F076FB042304A98DF8133018484FF487
:1009D000806300250124ADF8103000F069FB252369
:1009E00005A88DF814308DF816508DF8174001F0D9
:1009F0000BF84FF4E133009369460C230D48ADF832
:100A00000A30ADF80450ADF80650ADF80850ADF816
:100A10000C5000F0A5FB074840F22551224600F09B
:100A200008FC0448214600F0F7FB07B030BD00BFCA
:100A3000000801400038014038B50A4840F225510D
:100A400000F020FC68B1084C0648257800F010FC46
:100A5000064BFF2258552378013393FBF2F29B1883
:100A6000237038BD00380140842F0020852F0020DE
:100A700030B50F2389B0ADF81C3003238DF81E303C
:100A800007A915332A488DF81F3000F011FB1323F6
:100A90000025ADF8103004A94FF47A534FF0804090
:100AA000ADF81430ADF81650ADF8125000F0F4FD6A
:100AB00060230124ADF8003069464FF496534FF09F
:100AC0008040ADF80630ADF80240ADF8085000F0B7
:100AD00039FE08214FF0804000F066FF69464FF074
:100AE000804000F081FE08214FF0804000F065FF5B
:100AF00069464FF0804000F0BFFE08214FF0804073
:100B000000F065FF69464FF0804000F0FBFE0821D1
:100B10004FF0804000F064FF21464FF0804000F02D
:100B200036FF4FF08040214600F024FF09B030BD71
:100B300000080140F8B50C460021064607F004FD08
:100B400010B906F1004000E03046214907F042FAB2
:100B500000210546204607F0F7FC78B129462046DB
:100B600007F036FA29460746204607F033FA0146D1
:100B7000384607F0EBFB174D04460EE029462046A9
:100B800007F028FA21460746284607F021FA0146D1
:100B9000384607F0DBFB104D044620460F4907F0AE
:100BA00021FB214607F01EFB0D4907F011FA2146F3
:100BB00007F018FB0146284607F00CFA002104460E
:100BC000304607F0ADFC08B104F100442046F8BD02
:100BD000FFE6DB2EDB0F493FE4CB16406C783A3E54
:100BE00014AE773F82B030B585B001AC84E8070021
:100BF00008AD45F8043F074B94E8070083E8070079
:100C000095E80700044B83E8070005B0BDE83040D5
:100C100002B07047B4050020A80500202DE9F04F70
:100C200085B001AB83E807002449019807F0DAFAA0
:100C300022498046029807F0D5FA20498146039858
:100C400007F0D0FA1E4C824666682768314607F0E6
:100C5000C9FA0146384607F0BDF9A568834629461A
:100C6000484607F0BFFA0146584607F0B1F9394641
:100C700020600AF1004007F0B5FA314607F0AAF902
:100C800029468246404607F0ADFA0146504607F035
:100C9000A1F939466060484607F0A4FA3146074694
:100CA000404607F09FFA0146384607F091F9294679
:100CB00007F090F9A06005B0BDE8F08F0AD7A33B1C
:100CC000B40500200000000073B5334E6B4683E886
:100CD0000300306806F012FE2BA3D3E9002306F0D0
:100CE00061FE0446BDF900000D4607F027FA06F044
:100CF00005FE27A3D3E9002306F054FE02460B4667
:100D00002046294606F09CFC07F00EF9306070681A
:100D100006F0F4FD1CA3D3E9002306F043FE0446CD
:100D2000BDF902000D4607F009FA06F0E7FD18A329
:100D3000D3E9002306F036FE02460B46204629463C
:100D400006F07EFC07F0F0F87060B06806F0D6FDA3
:100D50000DA3D3E9002306F025FE0446BDF90400E7
:100D60000D4607F0EBF906F0C9FD09A3D3E900230E
:100D700006F018FE02460B462046294606F060FCA7
:100D800007F0D2F8B0607CBDDB8AFD65F7E4EF3F89
:100D9000462575029A086B3FB4050020AFF300802A
:100DA00070B50A4C0546A668606806F100463146F3
:100DB00000F10040FFF7BEFE28602068314600F1D8
:100DC0000040FFF7B7FE686070BD00BFB4050020AB
:100DD00010B5002388B00593069307934FF07E5318
:100DE00003930493029303AB93E803006B4683E8F9
:100DF000030005AA4FF07E5307CAFFF7F3FE124C1B
:100E0000052001F063F81148FFF7D4FC04F12C032E
:100E100093E8030004F13402FFF712FD04F11A0015
:100E2000FFF7F2FB04F1340393E80700FFF7F6FE47
:100E3000638BA08BE18B43EA0040FFF745FF201D49
:100E4000FFF7AEFFDBE700BF142F0020402F00208C
:100E500010B55F4C94B000235E4812938DF84C306F
:100E600010938DF844300E938DF83C300C938DF830
:100E700034300A938DF82C3008938DF82430069383
:100E80008DF81C3004938DF8143002938DF80C30DB
:100E900000938DF80430FFF76FFD206A06F02EFDF9
:100EA00002460B460CA84C4901F0E4FB0CA8FFF7E6
:100EB00063FD606A06F022FD02460B460AA8464919
:100EC00001F0D8FB0AA8FFF757FDA06A06F016FD4F
:100ED00002460B4608A8404901F0CCFB08A8FFF7E2
:100EE0004BFD606B06F00AFD02460B4612A83A491C
:100EF00001F0C0FB12A8FFF73FFDA06B06F0FEFC5F
:100F000002460B4610A8344901F0B4FB10A8FFF7C5
:100F100033FDE06B06F0F2FC02460B460EA82E49AC
:100F200001F0A8FB0EA8FFF727FD606806F0E6FCBD
:100F300021A3D3E9002306F035FD21A3D3E9002343
:100F400006F07CFB0022254B06F02CFD02460B46EA
:100F500006A8214901F08EFB06A8FFF70DFDA06849
:100F600006F0CCFC14A3D3E9002306F01BFD16A366
:100F7000D3E9002306F062FB0B460246164904A89B
:100F800001F078FB04A8FFF7F7FC226E144902A8D1
:100F900001F070FB02A8FFF7EFFC1149B4F86620DE
:100FA000684601F067FB6846FFF7E6FC0D48FFF76F
:100FB000E3FC14B010BD00BFF6285C8FC2A54C4006
:100FC000333333333333E33F52B81E85EB51124092
:100FD000142F00204C8D0008538D0008000008409D
:100FE0005A8D00085E8D000808B5012000F06EFFE4
:100FF000FFF72EFFF9E7000010B500244FF47A70D8
:1010000000F064FF44B10221084800F0A2F807484C
:10101000214600F09CF8F0E70448012100F099F81F
:101020000248022100F093F80124E7E7000C014098
:1010300010B54C2033210022194BFFF765F9194CEC
:101040000A2000F043FF606806F058FC10A3D3E9C3
:10105000002306F0A7FC10A3D3E9002306F0EEFA64
:101060000022114B06F09EFC06F036FF00F50070E2
:1010700080B2A4F86600B4F9641000B2084AFFF721
:1010800057F92066A4F86400D9E700BFAFF30080E9
:10109000F6285C8FC2A54C40333333333333E33F00
:1010A000B82F0020142F002000000840AFF300806C
:1010B000CB78F0B513F0100F03F00F020E881CBFB1
:1010C0008B781A4316F0FF0F1DD004680023012708
:1010D0009F4007EA0605BD4211D19F004FF00F0C5B
:1010E0000CFA07FC12FA07F724EA0C043C43CF7809
:1010F000282F01D1456102E0482F08BF0561013367
:10110000082BE4D104600E88FF2E1FD94468002309
:1011100003F108050127AF4007EA0605BD4211D1DA
:101120009F004FF00F0C0CFA07FC12FA07F724EAA5
:101130000C043C43CF78282F01D1456102E0482FB1
:1011400008BF05610133082BE2D14460F0BD0161A5
:101150007047416170470AB1016170474161704752
:1011600030B5038ACA8823F440531B041B0C134375
:1011700003820D4683890989AA8823F4B05341EA82
:101180000202698923F00C030A431B041B0C92B270
:1011900042EA03038381838AAA8923F440731B04F0
:1011A0001B0C87B013430446838201A800F0F2F9B8
:1011B000184BA2899C4212B20CBF049B039B002ACD
:1011C0004FF019012A6802DA5943520001E05943ED
:1011D00092006423B1FBF2F1B1FBF3F212011009AA
:1011E00003FB1011A08900B2002806DAC9003231D1
:1011F000B1FBF3F303F0070305E009013231B1FB62
:10120000F3F303F00F0343EA020292B2228107B024
:1012100030BD00BF0038014021B183899BB243F447
:10122000005304E0838923F400531B041B0C8381C7
:101230007047CBB210B55B09012401F01F0114FA0D
:1012400001F1A34201D10C3004E0022B01D1103096
:1012500000E014301AB1036843EA010102E00368B8
:1012600023EA0101016010BDC905C90D81807047E5
:101270008088C005C00D7047038819420CBF00204C
:101280000120704710B5CCB20122640901F01F03A0
:101290009A40012C01D1838903E0022C0CBF038A00
:1012A000838A9BB202EA0303028892B243B1090A1D
:1012B000012313FA01F111420CBF0020012010BDDF
:1012C000184610BD0B8810B54C88028844EA030309
:1012D0008C8802F441522343CC8823430C89234356
:1012E0004C8923438C892343CC89234342EA03035B
:1012F0009BB20380838B23F400631B041B0C83834A
:101300000B8A038210BD21B103889BB243F04003D6
:1013100004E0038823F040031B041B0C0380704788
:1013200081817047808980B27047038919420CBF60
:101330000020012070470000F0B587B00446868881
:1013400001A80D46304F00F025F9039826F03F061E
:101350003604B0FBF7F7360CBFB247EA0606A680A4
:1013600021882A6821F00101284B0904090C9A42BE
:1013700021800AD85300B0FBF3F301379BB2BFB210
:101380002784032B98BF042322E0E9884BF6FF73E0
:10139000994205D102EB4202B0FBF2F39BB206E0A8
:1013A00019235343B0FBF3F39BB243F480431A0574
:1013B000120D0AB943F001034FF4967257434FF4EC
:1013C0007A7297FBF2F70137BFB243F400432784E8
:1013D000A383238869899BB243F001032380238878
:1013E000AA8823F4806323F00A031B0441EA020263
:1013F0001B0C13439BB223802A89AB8942EA030367
:101400009BB2238107B0F0BD40420F00A0860100CF
:1014100021B103889BB243F0010304E0038823F069
:1014200001031B041B0C0380704721B103889BB28E
:1014300043F4807304E0038823F480731B041B0CC3
:101440000380704721B103889BB243F4007304E02A
:10145000038823F400731B041B0C038070471AB12C
:1014600083889BB2194303E083889BB223EA01017E
:101470008180704701827047008AC0B2704712B104
:1014800041F0010101E001F0FE0101827047838A11
:10149000008B9BB243EA004020F07F407047838876
:1014A000808A9BB280B2084006D001F0E06113EA66
:1014B00011410CBF002001207047C94389B28182CD
:1014C000704700000D4B1A6842F001021A6059681B
:1014D0000B4A01EA02025A601A6822F0847222F46E
:1014E00080321A601A6822F480221A605A6822F444
:1014F000FE025A604FF41F029A60704700100240CB
:101500000000FFF8014B1860704700BF0000424226
:10151000044B5A6822F47C1240EA02020A435A60E1
:10152000704700BF00100240014B1860704700BFB9
:1015300060004242034B5A6822F0030240EA020272
:101540005A60704700100240024B586800F00C00CF
:10155000704700BF00100240034B5A6822F0F002AF
:1015600040EA02025A60704700100240034B5A687A
:1015700022F4E06240EA02025A6070470010024022
:10158000034B5A6822F4605242EAC0025A60704724
:101590000010024010B5204B5A6802F00C02042AD9
:1015A00001D0082A02D01D4B036011E05A68596827
:1015B00002F47012920C023211F4803F03D05B6887
:1015C00013F4003F01D0164B00E0144B5A43026065
:1015D000114B14495A68046802F0F00212098A5C3F
:1015E00034FA02F242605C6804F4E064240A0C5DA0
:1015F00032FA04F484605C6804F46054E40A095D1F
:10160000CA40C2605B68084903F440439B0BCB5C53
:10161000B2FBF3F2026110BD0010024000127A002A
:1016200000093D000400002000000020044B11B11F
:101630009A69104302E09A6922EA000098617047B3
:1016400000100240044B11B1DA69104302E0DA697C
:1016500022EA0000D8617047001002404309012BC4
:10166000074A01D1136803E0022B0CBF136A536AC7
:1016700000F01F0033FA00F000F00100704700BFD7
:1016800000100240034B1A6802F0380240EA0202DE
:101690001A60704700200240204A038890429BB2A3
:1016A0000ED01F4A90420BD0B0F1804F08D01D4A97
:1016B000904205D01C4A904202D01C4A904206D16A
:1016C0004FF68F7203EA02024B8842EA0303184A7C
:1016D000904209D0174A904206D04FF6FF4203EAE3
:1016E0000202CB8842EA030303808B8883850B8840
:1016F00003850A4B98420BD0094B984208D00E4BF9
:10170000984205D00D4B984202D00D4B984201D122
:101710000B7A038601238382704700BF002C0140AF
:10172000003401400004004000080040000C00406C
:1017300000100040001400400040014000440140FF
:1017400000480140038C70B523F001031B041B0CFF
:101750000384038C8488028B0D8822F073021204A8
:10176000120C2A434E880D8923F002031B0446EA1B
:1017700005051B0CADB245EA0303164DA4B2A84201
:101780000BD0154DA84208D0144DA84205D0144DD9
:10179000A84202D0134DA84215D14FF6F77503EABF
:1017A00005054B89CE891D434FF6FB7305EA0303FC
:1017B0008D882B434FF6FF4504EA05058C8946EAE0
:1017C0000404A4B22C4384800283CA8882860384E2
:1017D00070BD00BF002C01400034014000400140BA
:1017E0000044014000480140038C30B523F0100351
:1017F0001B041B0C0384038C8288048B0D8824F447
:10180000E6442404240C23F0200344EA05241B04AA
:101810000D891B0C43EA05134D8892B243EA051368
:10182000134DA4B2A8429BB202D0124DA84219D1C6
:101830004FF67F7503EA05054B8945EA03154FF618
:10184000BF7305EA03038D8843EA05134FF2FF35A2
:1018500002EA05058A899BB245EA8205CA8945EAFA
:10186000820292B28280CA8804830287038430BDD8
:10187000002C014000340140038C30B523F4807308
:101880001B041B0C0384038C8288848B0D8824F03A
:1018900073042404240C23F400731B042C430D89CB
:1018A0001B0C43EA05234D8892B243EA0523134DEE
:1018B0009BB2A84202D0124DA84219D14FF2FF7537
:1018C00003EA05054B8945EA03254FF6FF3305EA90
:1018D00003038D8843EA05234CF6FF7502EA0505EC
:1018E0008A899BB245EA0215CA8945EA021292B278
:1018F0008280CA8884838287038430BD002C0140A3
:1019000000340140038C30B523F480531B041B0CBE
:101910000384038C8488828B0D8822F4E6421204AF
:10192000120C23F4005342EA05221B040D891B0C00
:1019300043EA05334D88A4B243EA05330B4D92B216
:10194000A8429BB202D00A4DA84207D14BF6FF75C0
:1019500004EA05058C8945EA8414A4B28480828354
:10196000CA88A0F84020038430BD00BF002C01408D
:101970000034014021B103889BB243F0010304E02D
:10198000038823F001031B041B0C0380704721B163
:1019900003889BB243F0800304E0038823F08003B4
:1019A0001B041B0C03807047038B23F008031B04EC
:1019B0001B0C41EA030303837047038B23F400638A
:1019C0001B041B0C43EA01239BB203837047838BE8
:1019D00023F008031B041B0C41EA030383837047B5
:1019E000838B23F400631B041B0C43EA01239BB28B
:1019F0008383704740F0BE60024B40F42020D860E3
:101A0000704700BF00ED00E0C37810B5EBB1154B97
:101A10004178DB688478DB4303F4E0631B0AC3F19D
:101A2000040291400F22DA4022400A430E4B017813
:101A30001201CB18D2B283F800230378012259098E
:101A400003F01F0312FA03F307E003780122590998
:101A500003F01F0312FA03F32031034A42F8213046
:101A600010BD00BF00ED00E000E100E000F1080360
:101A70004FF0FF3282604360C36003610023036064
:101A8000704700230361704743685A688B604A605F
:101A90005A689160596041600861036801330360CE
:101AA00070470A6810B5B2F1FF3F01D1036907E042
:101AB00000F1080300E05B685C6824689442FAD98E
:101AC0005A68086191604A608B605960036801330D
:101AD000036010BD436882689A608268536003693E
:101AE0005968814208BF5A60002202611A68013AAF
:101AF0001A6070472DE9F84F824648200D4614467B
:101B000099460A9FDDF82C80DDF830B000F0FAFA33
:101B10000646002800F0A180BBF1000F03D1A00011
:101B200000F0F0FA8346C6F830B0BBF1000F03D1E5
:101B3000304600F03FFB90E0A2005846A52100F09F
:101B40005BFC336B29461022013C06F1340003EBA9
:101B50008404042F34BFBB464FF0040B00F0B2FDE9
:101B6000351D002386F843302846C6F82CB0FFF711
:101B700088FF06F11800FFF784FF24F00704CBF17B
:101B800005033661B3617662204651464A4600F04D
:101B900023FA3060B8F1000F01D0C8F8006000F0FF
:101BA00069FA334B334C1A68DFF8F09001321A604F
:101BB000226842BB26601B68012B2CD19046142062
:101BC00000FB089008F10108FFF750FFB8F1050F7E
:101BD000F5D1DFF8CCA0DFF8CC805046FFF746FF08
:101BE0004046FFF743FF2448FFF740FF2348FFF735
:101BF0003DFF2348FFF73AFF224BC3F800A0224BDA
:101C0000C3F8008007E0214B1B6823B92368DB6A17
:101C1000BB4298BF26601E4AF36A11688B4288BF98
:101C200013601C4A11687164013111601A4A11680D
:101C30008B4288BF1360142000FB03902946FFF7F6
:101C400023FF00F023FA114B1B6853B12368DB6AB2
:101C5000BB4209D200F006FA03E04FF0FF30BDE8C6
:101C6000F88F0120BDE8F88F0120BDE8F88F00BF94
:101C70008806002070060020C005002048060020CD
:101C80007406002060060020440600206406002040
:101C9000C8060020B4060020D4050020E00500207E
:101CA0008C060020A00600201FB5002480222346B9
:101CB0000C480D490094019402940394FFF71AFF15
:101CC000012803460CD14FF0BF0080F31188074A6A
:101CD0001360074B1C6004B0BDE8104000F0A4B9CD
:101CE00004B010BD691E0008748D00086406002051
:101CF000DC050020024B1A6801321A60704700BFF1
:101D0000B8060020F8B51F4B1B68002B35D11E4DBF
:101D10001E4C2B6801332B602B6823BB1C4B2268A5
:101D2000196821601A601B4B1A6801321A601AE0A8
:101D30002A6873689A4224D3371D3846FFF7CAFED3
:101D4000B36A1BB106F11800FFF7C4FE124AF36A2A
:101D500011688B4288BF1360104A142000FB0320D7
:101D60003946FFF791FE23681B6853B1074B1B6888
:101D7000DB68DE68002EDBD1F8BD094B1A68013242
:101D80001A60F8BDB8060020DC05002060060020BF
:101D900044060020C4060020D4050020E0050020F1
:101DA000BC06002070B500F065F9274B1A68013AAF
:101DB0001A601D68002D41D1244B1C68E4B93EE037
:101DC000261D04F11800FFF785FE3046FFF782FE5E
:101DD0001F4AE36A11688B4288BF13601D4A1420B2
:101DE00000FB03203146FFF74FFE1B4BE26A1B68E6
:101DF000DB6A9A4228BF0125184B1A681AB1DB68C2
:101E0000DC68002CDCD1164E34682CB909E0FFF7F1
:101E100079FF2368013B23603368114C002BF6D116
:101E200005E0012D03D00F4B1B68012B07D10D4B93
:101E300000221A6000F016F9012400E0002400F0EE
:101E400025F9204670BD00BFB80600208806002096
:101E5000D4050020E005002070060020C005002009
:101E6000BC0600206806002070B5144D2B68F3B145
:101E7000134EFFF73FFF3468FFF794FFBCB100F04B
:101E8000F9F834680CB1F368DC68201DFFF722FE16
:101E90000C4B1A68013A1A602B68013B2B6000F06A
:101EA000F5F8206B00F086F9204600F083F9064B28
:101EB0001B68012BD9D900F0D5F8D6E7D80500204A
:101EC0004806002088060020E005002070B5044682
:101ED000C0B10F4EFFF70EFF356865190D4C206835
:101EE0000430FFF7F7FD23685D6033689D4234BF1F
:101EF000094B0A4B186821680431FFF7D2FDFFF740
:101F000051FF18B9BDE8704000F0ACB870BD00BF1B
:101F1000DC0500207006002044060020600600203A
:101F2000234B30B51B682BB10122224B3BE01A68D2
:101F3000013A1A60204B14241968204A6143515811
:101F40000029F4D0186844431319596808344968C3
:101F500014195960A14204BF49685960142303FB56
:101F6000002253681649DB68164A13600B68F3B108
:101F7000136815485B6C04689C4218D0134B144DD1
:101F80001C682D680834A5420FD912681968526C74
:101F90000260104800680860196804311960196807
:101FA0000A601A6804321A6030BD00230B6030BD2D
:101FB000B806002068060020D4050020E0050020B7
:101FC0005C06002070060020140000206C06002033
:101FD000C0060020DC05002010B5031F4FF0807400
:101FE00040F8044C43F8041C002143F8081C43F853
:101FF0001C2CA3F13C0010BD064B19680868B0E822
:10200000F00F80F309884FF0000080F311884EF044
:102010000D0E70477006002002480068006880F3CB
:10202000088800DF08ED00E00B4B10B51A680024AB
:1020300042F47F021A601A6842F07F421A60074B2E
:102040004FF6FF121A60072243F8042C044B1C6061
:10205000FFF7E2FF204610BD20ED00E014E000E0B5
:1020600018000020024B4FF080521A60704700BFEA
:1020700004ED00E04FF0BF0080F31188024B1A68B6
:1020800001321A60704700BF18000020044A13682C
:10209000013B13601BB94FF0000080F311887047BB
:1020A00018000020EFF309800C4B1A6820E9F00FAC
:1020B00010602DE908404FF0BF0080F31188FFF752
:1020C0002FFF4FF0000080F31188BDE80840196829
:1020D0000868B0E8F00F80F30988704770060020A8
:1020E00008B5074B4FF080521A604FF0BF0080F3E5
:1020F0001188FFF707FE4FF0000080F3118808BD3C
:1021000004ED00E070B50546FFF7F4FD24480168D2
:1021100061B9244B244A4FF4205413605160234A80
:102120005C601A60012354601160036035B11035A2
:1021300015F0070F1CBF25F0070508356A1E42F28F
:10214000FE739A4227D8184A136801E01A460346DC
:102150005968A94202D218680028F7D1134883426F
:1021600019D014681868491B1034202910600CD944
:102170005A1951605D6055680B4900E001460868D6
:102180004668AE42FAD310600A60094A5B6811687B
:10219000CB1A136000E00024FFF704FE204670BD58
:1021A000CC060020D0060020D02E0020D82E002003
:1021B0001C00002070B50446B0B1A0F11005FFF777
:1021C00099FD6968094B00E013461A685068884217
:1021D000FAD344F8102C1D60054B1A685118196089
:1021E000BDE87040FFF7DEBD70BD00BFD02E0020FF
:1021F0001C0000200A4A0B4B9A4205D10A4B0AE008
:1022000052F8041B43F8041B08498B42F8D3F5E746
:10221000002243F8042B064A9342F9D3704700BFCB
:10222000488F000800000020A0050020A005002025
:10223000D02F0020684620F007018D4601B5FFF73A
:10224000D9FF00F009F8FDF799FFFEE7FEE7EFF38D
:1022500008800046704700000D4B1A6842F00102EA
:102260001A6059680B4A01EA02025A601A6822F0A1
:10227000847222F480321A601A6822F480221A6072
:102280005A6822F4FE025A604FF41F029A607047A7
:10229000001002400000FFF808B5062000F092F997
:1022A0000120FEF711F800BF032A2DE9F00109D83B
:1022B0002AB10023CC5CC45401339342FAD1BDE867
:1022C000F00170470B468218014603E02478013381
:1022D00001F8014B11F0030F1C46F7D113F0030571
:1022E0005DD06E42C5F1040CED009B594FEACC0C59
:1022F00008E00434A7593B4607FA0CF748EA0707F9
:1023000041F8047B571A23FA05F8032FF1DC03E0A8
:1023100014F8013B01F8013B8A42F9D8CFE753F8A2
:10232000404C41F8404C53F83C4C41F83C4C53F87D
:10233000384C41F8384C53F8344C41F8344C53F88D
:10234000304C41F8304C53F82C4C41F82C4C53F89D
:10235000284C41F8284C53F8244C41F8244C53F8AD
:10236000204C41F8204C53F81C4C41F81C4C53F8BD
:10237000184C41F8184C53F8144C41F8144C53F8CD
:10238000104C41F8104C53F80C4C41F80C4C53F8DD
:10239000084C41F8084C53F8044C41F8044C561AC8
:1023A0001D460C46403340313F2EB8DC2B460FE033
:1023B00053F8101C44F8101C53F80C1C44F80C1C67
:1023C00053F8081C44F8081C53F8041C44F8041C77
:1023D000161B1D4610330F2E214604F11004E7DCB6
:1023E0002B4602E0246841F8044B551A1C46032D85
:1023F00003F10403F6DC8FE7032AC9B270B408D8EE
:102400002AB10346121803F8011B9342FBD170BC9A
:1024100070478218044601E004F8011B14F0030F12
:10242000FAD14FF0013303FB01F31FE044F8403CC5
:1024300044F83C3C44F8383C44F8343C44F8303CE4
:1024400044F82C3C44F8283C44F8243C44F8203C14
:1024500044F81C3C44F8183C44F8143C44F8103C44
:1024600044F80C3C44F8083C44F8043C161B254650
:1024700040343F2EDADC2C4607E044F8103C44F8A8
:102480000C3C44F8083C44F8043C161B2546103428
:102490000F2EF2DC01E045F8043B541B032CFADC60
:1024A00001E005F8011B9542FBD3B0E738B50446BF
:1024B000456C0DB1002038BD802102F0EDFD606457
:1024C00040B10346284603F1800243F8040B9342CF
:1024D000FBD138BD4FF0FF3038BD00BF1F2910B50C
:1024E000044682B007D8436C53B153F8210043F837
:1024F000212002B010BD16234FF0FF302360F8E713
:1025000001910092FFF7D2FF0199009A08B9636C1C
:10251000EBE74FF0FF30ECE71F2970B50C4605469E
:1025200020D8426CA2B152F821308BB1012B0DD0D2
:10253000B3F1FF3F06D00025084642F821509847E6
:10254000284670BD162301202B6070BD002070BD91
:10255000284600F06BF8224601462846BDE8704048
:1025600000F04EB816234FF0FF302B6070BD00BF57
:102570001F2910B5044682B012D8426CCAB152F875
:10258000213002EB810283B1B3F1FF3F0FD0012B69
:1025900009D00024084614609847204602B010BDB8
:1025A0004FF0FF30FAE70320F8E70120F6E70220BA
:1025B000F4E70191FFF77AFF01990028F0D1626CEE
:1025C000DDE700BF40F220030146C2F200031868B5
:1025D000A2E700BF40F220030A46C2F20003014610
:1025E00018687BE740F22003C2F2000318685DE739
:1025F00040F220030146C2F200031868B8E700BFAA
:1026000038B542F6CC74C2F20004054608461146BD
:1026100000232360FDF750FEB0F1FF3F00D038BD2E
:102620002368002BFBD02B6038BD00BFFDF74DBEEB
:102630000CB44FF4027370B59CB020AC0E46ADF8EC
:10264000103001A954F8042B4FF0FF33ADF81230CD
:102650006FF00045234601960596039506951B9459
:1026600000F06EF8019B00221A701CB0BDE87040AB
:1026700002B070470EB440F22003F0B59CB021AC1C
:10268000C2F20003064601A954F8042B6FF000457E
:1026900018684FF402772346019605964FF0FF36EF
:1026A000ADF81070ADF81260039506951B9400F01C
:1026B00047F8019B00221A701CB0BDE8F04003B03F
:1026C000704700BF41EA000313F0030F034670B4E4
:1026D00014BF00250125032A94BF002505F001053C
:1026E0000C460646CDB9B2B10D783446531E04F8F7
:1026F000015B55B1B21C73B111F8015F1446013B87
:1027000002F8015C0132002DF5D123B10022013B1A
:1027100004F8012BFBD170BC7047214654F8045BD0
:10272000A5F1013626EA050616F0803F05D1043AE8
:1027300043F8045B032A2146EFD81E46D3E700BFC7
:102740002DE9F04FC5B0144612930C91119002F090
:1027500083FC0068199003F07FFD1C900C9883891E
:1027600013F0800F03D00369002B01F084810DF179
:102770007C0A002356460DF1F7010E9309941A9333
:102780001B9317931D930F930791CDF8E4A03B93F0
:102790003A93099A1378B3F1250218BF0122002B4E
:1027A0000CBF002302F00103002B00F0BD80099B49
:1027B0005A1C174601323B78191E18BF0121252BE0
:1027C0000CBF002301F00103002BF2D1099CB7EBF1
:1027D000040810D03A9C099801343B9D072CC6F898
:1027E0000480306045443A943B9500F3818008367C
:1027F0000F9941440F913B78002B00F081807C1CA5
:10280000002200230D928DF80F31202509942B21F1
:102810007B784FF0FF37089222460132A3F1200067
:10282000582800F21D83DFE810F02E031B031B0362
:1028300037031B031B031B031B031B031B03C803DF
:1028400081001B035D0085001B039F00A500A50000
:10285000A500A500A500A500A500A500A5001B03D7
:102860001B031B031B031B031B031B031B031B0378
:102870001B03B70042021B0342021B031B031B0383
:102880001B0380021B031B0386021B031B031B038A
:102890001B031B03A4021B031B03B3021B031B0329
:1028A0001B031B031B031B031B031B031B031B0338
:1028B00055033D034202420242024F033D031B0304
:1028C0001B030C031B039B0369037F03DE021B0333
:1028D000E4021B03AC031B031B03D3030D9B1290E9
:1028E0005B420D93089C44F004040894137894E729
:1028F000119839AA0C9903F0DFFC40B9564677E7E6
:102900003B9B23B1119839AA0C9903F0D5FC0C9983
:102910000F9A8B8913F0400F18BF4FF0FF320F92C0
:102920000F9845B0BDE8F08F099F64E78DF80F114F
:10293000137872E712F8013B2A2B01F00B82A3F106
:102940003000092801F2C1811446002714F8013B28
:1029500007EB870700EB4707A3F130000928224661
:10296000F4D947EAE77759E7089B43F080030893D7
:10297000137852E714460020A3F1300814F8013B05
:1029800000EB8000A3F1300C2246BCF1090F08EBEC
:102990004000F1D90D9041E70992089A169342F050
:1029A00010020892089B13F0200F00F08282129C04
:1029B000E31D23F0070303F108001290D3E900455B
:1029C000002C75F10002C0F2CE8554EA05034FF0E9
:1029D00001030CBF00220122002FA2BF089921F0A1
:1029E00080010891002F18BF42F00102002A00F078
:1029F000AD83012B00F0FF84022B00F0DF840DF18A
:102A0000BC0B0BF12703EA084FEAD40848EA4578E3
:102A100004F00704114604F130020D46444654EA1E
:102A200005009C461A7003F1FF33ECD10899CDF8EC
:102A30004CC011F0010F40F088850BF1280BCCEB56
:102A40000B0210929DF80F210020109C1597BC429C
:102A5000B8BF3C4618900A9412B10A9801300A9007
:102A6000089911F0020B02D00A9B02330A93089CCA
:102A700014F08404149440F0CD820D980A99471AFA
:102A8000002F40F3C782102F41F379803B9D48F619
:102A90007C583A9CC0F6000829464FF0100922469F
:102AA0000C9D4446DDF8448002E0103F102F1BDDF2
:102AB00001323460C6F8049010310836072A3A9281
:102AC00006F108033B91F0DD4046294639AA5646F7
:102AD00003F0F2FB0AF1080300287FF418AF103F5F
:102AE0003B99102F3A9AE3DCA0460D461446013478
:102AF000C6F80080072C77603D443A943B9500F37C
:102B00007E829DF80F211E466AB13A9C43AB033387
:102B1000336001340123072C73601D443A943B95C4
:102B200000F3E9830836BBF1000F0CD03A9C43ABAD
:102B30003360022301347360072C1D443A943B95A3
:102B400000F3CE830836149A802A00F0108315997A
:102B500010980F1A002F40F35B83102F40F3EC8581
:102B60003A9C2A46DFF8988A4FF0100B23460C9DBA
:102B70004446DDF8448002E0103F102F1BDD013396
:102B80003460C6F804B010320836072B3A9306F1C9
:102B900008093B92F0DD4046294639AA0AF10809A6
:102BA00003F08AFB564600287FF4B1AE103F3B9AF3
:102BB000102F3A9BE3DCA04615461C460134C6F8AC
:102BC0000080072C77603D443A943B9500F37D8369
:102BD000089A12F4807F40F04E823A9C109B013498
:102BE0001398072C1D44C9F80430C9F800003B9520
:102BF0003A9400F3358209F10809089C14F0040F97
:102C000046D00D980A99461A002E41DD102E41F348
:102C10000B803A9C48F67C58C0F6000810272346E3
:102C2000DDF830B04446DDF8448002E0103E102E5E
:102C300019DD01331035072BC9F80040C9F80470BD
:102C400009F108093A933B95F0DD4046594639AA07
:102C5000D14603F031FB00287FF459AE103E3B9D76
:102C6000102E3A9BE5DCA0461C460134C9F80080D2
:102C7000072CC9F8046035443A943B9508DD119857
:102C800039AA0C9903F018FB00287FF440AE3B9D55
:102C90000F9A0A9C0D9B9C42ACBF1219D2180F923E
:102CA000002D40F00383002056463A9071E50899C4
:102CB0001D46099211F0080F169300F08784129AAE
:102CC000D31D23F0070303F10804129418681A9027
:102CD0005B681B931A981B9903F074F9012840F064
:102CE00050841A98002200231B9905F0CDF8002883
:102CF00040F02E879DF80F21032048F6A05348F698
:102D00009C510A901698C0F60001C0F600030024FA
:102D10004728D8BF0B4608991393032321F080015D
:102D2000159408911093189496E6089C44F00804B2
:102D30000894137871E50899099241F010010891FF
:102D4000089A169312F0200300F0DF80129BDA1D20
:102D5000002322F0070202F108041294D2E9004590
:102D600054EA05000CBF0022012200208DF80F015B
:102D700032E6089C099244F01004089408981693CF
:102D800010F0200F00F0048112990123CA1DE0E722
:102D9000099248F6AC51089AC0F60001169312F059
:102DA000200F179100F02081129CE31D23F00703F0
:102DB00003F108001290D3E9004554EA0502089B8C
:102DC0000CBF00220122134200F0698316983023C1
:102DD000089901228DF80C31022341F002018DF88F
:102DE0000D010891C1E7089840F020000890137881
:102DF00013E509920021129A16938DF80F11141DF4
:102E000013681393002B00F0FD86002FC0F2A786F5
:102E1000139800213A4602F0FDFB002800F04A8793
:102E2000139BC01A1090B84240F3F584002027EAA3
:102E3000E77115900A919DF80F2112941097189040
:102E40000AE613786C2B0BBF089B089C43F0200309
:102E500044F010040ABF0893089412F8013FDCE420
:102E600009921693002B3FF44BAD002201218DF8FF
:102E7000BC302FAC00230A9110918DF80F311592C0
:102E800018921394ECE59DF80F31002B40F09B83D2
:102E90008DF80F511378C0E4089840F001000890B5
:102EA0001378BAE41693089B099213F0200F7FF46D
:102EB0007EAD089911F0100F00F0A483129A1468E7
:102EC00004321292E5177BE5089840F04000089024
:102ED0001378A2E416930121129B0020099200228C
:102EE0001C1D0A911B68129410912FA98DF80F01D7
:102EF0001592189213918DF8BC30B1E50992089A99
:102F0000169312F020037FF421AF089911F01002FC
:102F100000F09283129C2268043400251294144617
:102F2000003A18BF012220E7129B7821089C002557
:102F3000099248F6C0501A6844F002040433089419
:102F4000129314463023003A8DF80C3118BF012239
:102F5000C0F600008DF80D1117900223169104E7BA
:102F60000899099211F0200F00F05983129A0F9CD2
:102F7000129811682246E31704301290C1E9002329
:102F800007E40898099210F0200F16937FF4FCAE26
:102F9000089911F0100F40F09182089810F0400F3E
:102FA00000F08C821299012300250A8804311291C5
:102FB0001446003A18BF0122D7E6129B129C1B68E8
:102FC000201D002B0D93FFF689AC1378129024E49A
:102FD000099248F6C050089AC0F60000169312F005
:102FE000200F17907FF4E0AE089911F0100F00F059
:102FF000FA82129A0025146804321292DDE61198C2
:1030000039AA0C9903F058F900287FF480AC9DF898
:103010000F2156463B9D77E5089A12F0010F40F0CC
:10302000FD803A9C0135139A01230134C9F804301C
:10303000072CC9F800203B953A9400F3338509F139
:10304000080B0BF108091D9B0134072C1D44CBF81C
:1030500004303EABCBF800303B953A947FF7CDADD2
:10306000119839AA0C9903F027F900287FF44FAC86
:10307000D1463B9DC1E51699652940F3CB801A984E
:10308000002200231B9904F0F5FE002800F03E8189
:103090003A9C48F6DC53C0F60003C9F8003001340E
:1030A0000123072CC9F804301D443A943B95D8BF3E
:1030B00009F1080900F34783429B0E9A934204DB0F
:1030C000089B13F0010F3FF498AD3A9C1C98013413
:1030D0001999072C0544C9F80400D8BF09F1080361
:1030E000C9F800103B953A9400F3BD830E9A561E22
:1030F000002E40F31E83102E40F301863A9C1027C9
:10310000DFF8FC842246DDF830B04446DDF8448028
:1031100003E0103E102E40F3C48101321C605F605A
:1031200010350833072A3A9203F108093B95F0DD80
:103130004046594639AA0AF1080903F0BDF853463A
:1031400000287FF4E4AB3B9D3A9AE2E7002B40F085
:10315000B780089C14F0010F00F02B810120302370
:103160000DF1E30110908DF8E33013916AE40D9BAB
:103170000A9C1F1B002F7FF7EAAC102F40F38885B5
:103180003A9C3346DFF878844FF010092246DDF888
:1031900030B04446DDF8448002E0103F102F1BDDC4
:1031A00001321C60C3F8049010350833072A3A92A4
:1031B00003F108063B95F0DD4046594639AA0AF16D
:1031C000080603F079F8534600287FF4A0AB103FBF
:1031D0003B9D102F3A9AE3DCA04614460134C3F815
:1031E0000080072C5F603D443A943B957FF7AFAC7D
:1031F000119839AA0C9903F05FF800287FF487AB87
:103200001599564610983B9D0F1A002F3FF7A5AC15
:10321000B146DDE40E9901297FF7FEAE3A9C0135F7
:10322000139B0134C9F800300123072CC9F804307E
:10323000D8BF09F108093B953A94D8BF09F10806AF
:1032400000F3418101341C991998072C0D44D8BF13
:1032500006F1080BC9F80410C9F800003A943B9530
:1032600000F33F811A98002200231B9904F002FE0C
:10327000002840F0CE800E9B013413985A1E7260D5
:10328000431C072C336015443A943B957FF7D9AE25
:10329000119839AA0C9903F00FF800287FF437AB86
:1032A0000AF10809D3463B9D3A9CCCE6119839AA0D
:1032B0000C9903F001F800283FF4F5ACFFF727BBA9
:1032C000109239AA1392FFF7BDBB119839AA0C9935
:1032D00002F0F2FF00287FF41AABD1463B9D77E461
:1032E000119839AA0C9902F0E7FF00287FF40FAB80
:1032F0003B9D564627E4119839AA0C9902F0DCFF51
:1033000000287FF404AB3B9D56460CE4429E002E01
:1033100040F324820E9E189C1398A642A8BF26460E
:103320000E99002E00EB010B0EDD3A9CAD19C9F889
:1033300000000134C9F80460072C3B953A94D8BFCB
:1033400009F1080900F32584189A26EAE676961B07
:10335000002E40F30284102E40F3F6843A9C294656
:10336000DFF89C82102722460C9D4446DDF84480FD
:1033700003E0103E102E40F3718101321031072A14
:10338000C9F80040C9F8047009F108093A9209F136
:1033900008033B91EDDD4046294639AAD14602F0AB
:1033A0008BFF0AF1080300287FF4B1AA3B993A9AEF
:1033B000DFE7109339AB1393FFF744BB0DF1BC0B60
:1033C00017990BF1270004F00F02230943EA057354
:1033D0004FEA151C8A5C1C460346654601381A7084
:1033E00054EA0502EFD10BF1280B1393C3EB0B0347
:1033F0001093FFF727BB0A2C75F100017FD2303400
:1034000001220DF1E30310928DF8E3401393FFF7CF
:1034100019BB0E994F1E002FDCBF06F10809B346F9
:103420007FF711AE102FD8BFDFF8D4812CDDDFF885
:10343000D08123462A464FF0100944460C9DDDF802
:10344000448002E0103F102F1BDD01333460C6F8CA
:10345000049010320836072B3A9306F1080B3B9282
:10346000F0DD4046294639AA0AF1080B02F024FF94
:10347000564600287FF44BAA103F3B9A102F3A9BE8
:10348000E3DCA04615461C460134C6F80080072C34
:1034900077603D443A943B957FF7D3ADF8E602233D
:1034A00063E4A04614460134C3F80080072C5E6034
:1034B00035443A943B957FF7A0ABD1E5129B129C23
:1034C0001A68012328E5119839AA0C9902F0F4FE34
:1034D00000287FF41CAA3B9D0AF108063A9CD146BD
:1034E000B0E6119839AA0C9902F0E6FE00287FF4A4
:1034F0000EAA3B9D0AF1080B3A9C5646B2E60DF126
:10350000BC0BB1460BF12708204629460A220023AE
:1035100005F054F8464620462946002308F1FF38B6
:1035200002F130040A22347005F048F804460D46D2
:1035300054EA0500E8D113960BF1280B13994E4677
:10354000C1EB0B011091FFF77DBA302A00F04783E1
:1035500013930BF1280B1398C3EB0B043023109437
:103560000370FFF76FBA644265EB45052D2354EAFB
:1035700005008DF80F310CBF002201220123FFF757
:103580002BBA1A981B9902F01DFD002840F0768195
:10359000159048F6A85348F6A4521698C0F60002B3
:1035A000C0F600034728D8BF13461393159B032486
:1035B00008990A9421F080019DF80F210891109438
:1035C0001893FFF749BA1378FFF727B91299CB1D63
:1035D00023F0070303F1080212921C681A945B6837
:1035E0001B93FFF777BB089B13F0400F00F0278178
:1035F00012980025048804301290FFF7DEBB00BF4C
:103600008C8D0008089B13F0400F00F01181129878
:10361000B0F9004004301290E517FFF7D1B90899CE
:1036200011F0100F00F01281129A0F9C13680432EF
:1036300012921C60FFF7ADB8089810F0400300F03C
:103640000F82129B0025129C198804341346129491
:103650000A1E0C4618BF0122FFF787BBA0460D4685
:1036600014460134C9F80080072CC9F804603544B9
:103670003A943B9500F3BB82429A0E9CA2424ADBED
:10368000089810F0010F46D1139C189821180E9C31
:10369000C1EB0B07A21ABA42B8BF1746002F0ADDCA
:1036A0003A9CED19196001345F60072C3B953A9400
:1036B00000F38782083327EAE776961B002E38DD71
:1036C000102E40F31C833A9C1027DFF8C886224650
:1036D000DDF830B04446DDF8448003E0103E102EA3
:1036E0007FF7DFAE01321C605F6010350833072AB8
:1036F0003A9203F108093B95F0DD4046594639AA54
:103700000AF1080902F0D8FD534600287FF4FFA80B
:103710003B9D3A9AE2E73A9C1C9901341998072C90
:103720000D44596018603B953A9400F33E8208338B
:10373000AAE79946FFF761BA06F108093A9CDFF853
:103740005486FFF73BBA119839AA0C9902F0B4FDE0
:1037500000287FF4DCA83B9DD146ADE43A9C48F6B6
:10376000DC53C0F60003C9F8003001340123072CF4
:10377000C9F804301D443A943B95D8BF09F10809B3
:1037800000F39F8136B90E9B23B9089C14F0010FFA
:103790003FF433AA3A9C1C9801341999072C05442C
:1037A000C9F80400C9F80010D8BF09F108093B9511
:1037B0003A9400F3BE817642002E40F3AB81102E86
:1037C000D8BFDFF8D08540F38D81DFF8C885234668
:1037D0001027DDF830B04446DDF8448003E0103EA9
:1037E000102E40F37D8101331035072BC9F80040BE
:1037F000C9F8047009F108093A933B95EFDD40469A
:10380000594639AAD14602F057FD00287FF47FA817
:103810003B9D3A9BE3E7109B0022129400241592F3
:1038200023EAE3739DF80F210A931894FFF714B964
:1038300012990C6804311291E517FFF7C1B812997B
:1038400000250C6804311291FFF7B7BA089810F000
:10385000400F00F01F8112990F9A0B6804311291EA
:103860001A80FEF796BF119839AA0C9902F024FD30
:1038700000287FF44CA83B9D534637E4B7F1FF3F47
:1038800000F06481169CA4F1670EDEF1000343EBA7
:103890000E03472C08BF43F0010313B1002F08BFEC
:1038A00001271B9B1699002B0898A1F16604B9BF4C
:1038B00003F100494FF02D0BDDF86C904FF0000B39
:1038C000D4F1000C4CEB040C40F48070462908BF86
:1038D0004CF0010C0890BCF1000F40F0B781A1F151
:1038E0006500434243EB0003452908BF43F0010351
:1038F000002B00F0EF8107F1010802231A9A42A978
:10390000CDF82C9000930A92DDE90A2311980291D8
:1039100041A9CDF818C0039140A9CDF804800491C5
:1039200000F0D0FADDF818C013901698B0F16703D4
:1039300018BF012347280CBF002303F001032BB954
:10394000089911F0010F08BF409B16D0139A02EBA3
:103950000804BCF1000F05D01378302B00F0DF8194
:10396000429BE4181A9800220023494604F082FA88
:10397000002800F0818123464094169C1398A4F1FE
:1039800067014A42C0EB030342EB01020E93472C4E
:1039900014BF134642F00103002B00F05A81429BF2
:1039A00013F1030F109302DB9F4280F27881169986
:1039B00002391691013B169C002B42938DF8F8407A
:1039C000C0F2A4812B228DF8F920092B40F38581C8
:1039D00046F267640DF1F600C6F2666484FB0321CB
:1039E000DA170546C2EBA10202EB8201A3EB41010B
:1039F00013463031092A00F80119EFDC30336A1E12
:103A000005F8013C0DF1F7039A4228BF0DF1FA01C8
:103A100009D20DF1FA0312F8011B03F8011B194634
:103A2000079C9442F7D83EAB0E98CB1A0E99181803
:103A30001D930129109040F37F81109B002418945E
:103A400001331093BBF1000F40F0F580109B9DF8FF
:103A50000F2123EAE373CDF854B00A93FEF7FCBFBD
:103A6000129800250268043012901446003A18BFDC
:103A70000122FFF77AB94021119801F00DFB0C9952
:103A800008600861002800F07A810C9840234361A7
:103A9000FEF76DBE129C0F982368043412941860D0
:103AA000FEF777BE119839AA0C9902F005FC0028A0
:103AB0007EF42DAF3B9D0DF184093A9CD346FFF770
:103AC000C2BA119839AA0C9902F0F6FB00287EF4CC
:103AD0001EAF429ED1463B9D002E7FF45BAE52E668
:103AE000A0461C460134C9F80080072CC9F80460C0
:103AF00035443A943B95D8BF09F108090ADD11987D
:103B000039AA0C9902F0D8FB00287EF400AF3B9D47
:103B1000D1463A9C01340E9B139A072C1D44C9F8D8
:103B20000430C9F800203A943B957FF764A8FFF76A
:103B300097BA119839AA0C9902F0BEFB00287EF4BE
:103B4000E6AE429ED1463B9D3A9C34E60627A8E667
:103B50002D228DF80F21FFF7CFB84B468CE5139837
:103B60000021159102F078FB159B1294189320EA1E
:103B7000E07210900A929DF80F21FEF76DBF48F693
:103B80007C5806F108033B9DC0F600083A9CFEF7FE
:103B9000AEBF119839AA0C9902F08EFB00287EF472
:103BA000B6AE3B9DD146FFF7CFBB119839AA0C9911
:103BB00002F082FB00287EF4AAAE429A53463B9D57
:103BC00062E5119839AA0C9902F076FB00287EF480
:103BD0009EAE429A53460E983B9D821A6BE5139B0C
:103BE0000BF1280BC3EB0B031093FEF72BBF1198BF
:103BF00039AA0C9902F060FB00287EF488AE534687
:103C00003B9D39E5062F28BF062748F6D45027EA02
:103C1000E771C0F600001A4610970A9112941593A6
:103C200018931390FEF718BF48F67C583A9CC0F6DC
:103C30000008FFF71AB8109C2D2200208DF80F21E4
:103C400024EAE47415900A94FEF707BFB8460323EC
:103C500054E6169A662A60D1429B002B109340F3DB
:103C600086801FB9089810F0010F02D05A1CD21993
:103C7000109218931695E5E6409B9C427FF67DAE28
:103C8000302203F8012BA3424093FAD3234674E673
:103C900033463A9C0836DFF8FC80FFF79FBA0E9A4D
:103CA000934222DB089C14F0010F34D0581C672586
:103CB0001090DEE727EAE77215900A9212949DF8B9
:103CC0000F2110971890FEF7C7BE002747EAE77745
:103CD000FEF7A4BDB846022310E6303330223FA9D8
:103CE0008DF8FA208DF8FB309DE6002B0E99D4BF9D
:103CF000C3F102020122521867251092B9E703F1BD
:103D000008093A9CDFF88C80FFF7CDBB2D225B427F
:103D10008DF8F92059E66725ABE7429B4AE61A98E9
:103D200000220023494604F0A5F800287FF418AECD
:103D3000C8F10103429313E6089A12F0010308BF89
:103D400018933FF47FAE78E609F108033A9CDFF858
:103D5000448086E4129807680430002FBEBF4FF0FD
:103D6000FF3713781290BFF630A9FEF756BD1FB982
:103D7000089911F0010F0AD00237109779E7119CCA
:103D80004FF0FF320C230F922360FEF7C9BD0122D2
:103D900010926EE78C8D00082DE9F04F83B0036917
:103DA00081460D6901919D4200F38980EA1C01F171
:103DB000140400F11408013D92008B1882181F1D95
:103DC00059685068013103F0F7FA064600283CD0E4
:103DD000002042462346864653F804CB11681FFA5A
:103DE0008CFB4FEA1C4C1FFA81FA0BFB060BD644E6
:103DF0000CFB06F000EB1B401FFA8BFBCBEB0E0A13
:103E00001FFA80FE000CCEEB114E9F420EEB2A4EA5
:103E10001FFA8AFC4CEA0E414FEA2E4E42F8041B70
:103E2000DAD22A1D09EB8203596871B998450AD282
:103E300059F822203AB9043B02E053F8042912B998
:103E4000013D9845F9D3C9F810504846019901F051
:103E50009DFE00282FDB013643464FF0000C54F83E
:103E6000040B19681FFA80FA000C8AB2C0EB1141EA
:103E7000CAEB0202A742944401EB2C421FFA8CFCCD
:103E80004CEA02414FEA224C43F8041BE7D22A1DB8
:103E900009EB8203596871B998450AD259F8222072
:103EA0003AB9043B02E053F8042912B9013D9845A0
:103EB000F9D3C9F81050304603B0BDE8F08F0020A8
:103EC000FAE700BF2DE9F04F9FB0456A04469046DF
:103ED00099462B9E002D00F09D832B6853B16A6894
:103EE0000125194695409D605A6001F00FFC636AF8
:103EF00000221A60B9F10005C0F2D28000233360BD
:103F000000231A46C7F6F073C7F6F07205EA0303FA
:103F1000934200F0AE800022002340464946CDE99E
:103F20000489012603F0A6FF80B916F0FF0F11D116
:103F30002A9F01232C983B60002800F0EB807E4BE9
:103F40002C99581E0B601FB0BDE8F08F002616F0AC
:103F5000FF0FEDD02046DDE904231CA900911DA927
:103F6000019101F027FFC5F30A568246002E00F0AA
:103F7000AC80059FA6F57E76073E002027F07F43A4
:103F80001D9F23F47003179043F07E5343F4E00326
:103F900005930023DDE904010022C3F6F87303F062
:103FA0004DFB5FA3D3E9002303F0FCFC5EA3D3E940
:103FB000002303F045FBCDE90401304603F08CFCFF
:103FC0005BA3D3E9002303F0EDFC02460B46DDE9D9
:103FD000040103F035FBCDE9040103F07DFF00226D
:103FE00000230546DDE9040103F04EFF40B12846F9
:103FF00003F072FCDDE9042303F03CFF00B9013D4E
:10400000162D00F2628248F610614246C0F60001A9
:104010004B4601EBC501D1E9000103F053FF002835
:1040200000F00E83013D00201690013FBE1B00F101
:10403000028300270E961297002DC0F2F4820E988C
:104040004FF0000B159540190E90289B092B75D841
:10405000052B40F39B860027043B28932898831E5A
:10406000032B00F21384DFE813F00B04FA03DB03E5
:104070000E042A9842F20F73036048F6EC50C0F623
:104080000000B8F1000F11D02C9900293FF45BAF6C
:10409000C278C31C0AB100F108032C9A136052E7DE
:1040A00025F000450123A946336029E748F6E05290
:1040B00048F6EC53C5F31300C0F60002C0F6000347
:1040C00000280CBF10461846DEE71D9F1C9BFB18FE
:1040D00003F586639E1C202EDCBFC6F1200008FA83
:1040E00000F007DDC6F140001E3B854028FA03F3CF
:1040F00045EA03000121179103F0DEFBA6F5866671
:10410000033E0B460246CDE90423059BA3F1F87359
:1041100005933EE748F6DC50C0F6000013E700BF09
:1041200061436F63A787D23FB3C8608B288AC63FBD
:10413000FB799F501344D33FDD8D000800204FF0E2
:10414000FF31074601222890139114920D91299076
:10415000666A002373602046716801F0A3FA636AFF
:1041600030601B680F93002F00F0EB80002D40465D
:104170004946CDE90A89CDE9040140F3318448F686
:10418000106305F00F02C0F600032E1103EBC2030B
:1041900016F0100F08BF4FF00208D3E90001CDE977
:1041A000100140F05082BEB148F6D867DDE9102317
:1041B000C0F6000716F0010F1046194607D0D7E9E0
:1041C000002308F1010803F0EDFB02460B46083717
:1041D0007610EFD1CDE91023DDE90A01DDE91023E6
:1041E00003F00AFDCDE90A01169900293DD000230C
:1041F000DDE90A010022C3F6F073012603F044FE54
:10420000002800F00B830D9A002AD4BF002606F088
:10421000010656B3139B002B40F38F80002300222E
:10422000C4F22403DDE90A0103F0BCFB6F1E1997F9
:10423000CDE90A0108F1010003F04EFB02460B46EE
:10424000DDE90A0103F0AEFB00230022C4F21C03E7
:1042500003F0F6F9DDF84C900B460246CDE9102349
:10426000119BA3F1507311933CE2404603F034FBE1
:10427000DDE90A2303F096FB00230022C4F21C03AD
:1042800003F0DEF902460B46CDE91023119B0D9891
:10429000A3F150761196002840F0218200230022DD
:1042A000C4F21403DDE90A0103F0C8F9109F334694
:1042B0003A468046894603F005FE002840F00A820F
:1042C0001098494606F100430246404603F0DCFDE3
:1042D000002832D0DDF834B0CDF828B0299A002774
:1042E0000F9ED5432046594601F010FA0A9A72B142
:1042F0003B1E18BF012397420CBF002303F00103AC
:10430000002B40F0568320460A9901F0FFF9204621
:10431000514601F0FBF90023337001352A9B2C9F95
:104320001D60002F00F013843E600F980BE6DDF84F
:1043300068B01B9DDDF860A00A9CDDE9042390466F
:1043400099461C9BDF43FF0F0E2DCCBF002707F0C3
:104350000107002F00F0BC80299848F61063C0F6D2
:1043600000030D9903EBC503C70F0029CCBF00273D
:1043700007F00107D3E90001CDE90601002F40F065
:10438000968102460B464046494603F035FC0F9E97
:1043900003F0A2FD834603F09FFADDE9062303F054
:1043A00001FB02460B464046494603F047F90BF134
:1043B0003003CDE9040106F8013B0D9A012A53D0E0
:1043C00000230022C4F224034FF0010803F0EAFAAC
:1043D00000220023CDE9040103F04CFD00B1B846F2
:1043E00018F0FF0F93D0DDF834903746CDF834A0A5
:1043F0004FF001080995A2460DE003F0D3FA002220
:104400000023CDE9040103F035FD00B1002414F0D0
:10441000FF0F00F00D84DDE9062308F10108DDE956
:104420000401012403F0E8FB03F056FD834603F08A
:1044300053FADDE906230BF1300503F0B3FA024627
:104440000B46DDE9040103F0F9F800230022C14521
:10445000C4F22403CDE9040107F8015B3E46CCD148
:104460005446099DDDF834A0DDE9040102460B46FF
:1044700003F0E6F8804689464246DDE906014B46F0
:1044800003F002FD60B9DDE9060142464B4603F048
:10449000F1FC00283FF43BAF1BF0010F3FF437AFB6
:1044A00019950F98334613F8011C5A1E1E461346E1
:1044B000392940F0DF839842F5D10F983023199FB6
:1044C00003707D1C3123137021E701211691ACE5A7
:1044D0001499002940F0C880149B5F46129E0A93ED
:1044E000002E0E98D4BF002301230028D4BF002340
:1044F00003F001034BB103461299B342A8BF334600
:10450000F61AC91AC01A12910E90BBF1000F1CDDE9
:10451000149A002A00F09283002F12DD0A993A467D
:10452000204601F08BFA52460A9020460A9901F083
:10453000F1F9514603462046039301F0E7F8039B47
:104540009A46BBEB070240F080830121204601F030
:10455000D7F9159B002B834605DD594620461A46A0
:1045600001F06CFA8346289F012F40F398810027C1
:10457000159A002A40F0EE8201230E981B1813F0C2
:104580001F0300F01B82C3F12003042B40F3F283CE
:10459000043B1299F618C018C9180E90129112997E
:1045A000002905DD51462046129A01F099FA82460B
:1045B0000E9A002A04DD5946204601F091FA8346FE
:1045C000169B002B40F0D08228980D990228D4BF6A
:1045D000002301230029CCBF002303F00103002B9B
:1045E00000F0778100297FF479AE594605220D9BB2
:1045F000204601F0A7F883465046594601F0C6FA16
:1046000000287FF76BAE0F9E31230135002706F897
:10461000013B67E6102000F02FFD60624560856079
:104620000560C56066E412990022C5F1000B159281
:10463000491B129109E57642002312960E93FBE482
:1046400000221692F1E448F6D8634046C0F6000313
:10465000494606F00F064FF00308D3E9082303F09C
:10466000CBFACDE90A019EE5289A012A40F3F382AC
:104670000D980D9A431E9B45B7BFCBEB0303C3EBCD
:104680000B0715999B44BCBFC9181591002AC0F2AD
:10469000FB82129E0D9B129A20460121D218129283
:1046A0000E9AD2180E9201F02BF90A9018E70D9B82
:1046B000002B40F0D98200230022C4F21403DDE96C
:1046C000060103F06FF942464B4603F0F1FB002868
:1046D0007FF400AEDDF834B0CDF828B093E7DDF814
:1046E000349019951499002900F0AD8148F61063B3
:1046F0000021C0F60003002003EBC903C3F6E071FC
:104700000F9E53E9022303F077FADDE9102302F04C
:1047100095FFCDE91001DDE90A0103F0DDFB074655
:1047200003F0DAF802460B46DDE90A0102F086FFE3
:1047300007F13003CDE90A01DDE9100106F8013B7C
:10474000DDE90A2303F0BEFB002840F0FD810021D3
:10475000DDE90A230020C3F6F07102F06FFF024684
:104760000B46DDE9100103F0ADFB00287FF499AEA4
:10477000B9F1010F7FF7E1ADCDF868B037461B9571
:104780004FF00108CDF860A0DDE90AAB0A94DDE93D
:1047900010450FE000210020C3F6F07102F04EFF3B
:1047A00022462B4603F070FB002840F06982C84582
:1047B000BFF6BDAD00230022C4F2240320462946E3
:1047C00008F1010803F0EEF800230022C4F22403EC
:1047D00004460D465046594603F0E4F88B4682469F
:1047E00003F07AFB064603F077F8303602460B46B4
:1047F0005046594602F022FF22462B4607F8016B2D
:104800003E4682468B4603F03FFB52465B460028FD
:10481000C0D0DDF860A00A9C199D78E50026F2E47E
:104820000123149329990029C2BF084613910D90C2
:1048300040F3B081666A00221728726040F29E82BF
:1048400004235B00013203F114018142F9D90D9B6D
:1048500072600E2B8CBF002707F001077BE400235A
:10486000149329982818139001300028C8BF0D9080
:10487000E0DC0E288CBF002707F001070D9067E4ED
:1048800000201490CEE701221492EAE74FF0FF33A4
:1048900000270120139314900D93299758E4B8F141
:1048A000000F7FF464AEC9F313034746002B7FF477
:1048B0005FAEC7F6F07309EA03031F46002B3FF40F
:1048C00057AE129801270E990130129001310E91C6
:1048D0004EE6149B002B00F06381002E05DD204680
:1048E0000A99324601F0FCF80A90002F40F0F0815E
:1048F0000A9804900F9E08F001010A9F0E910A95F4
:1049000059465046FFF748FA39464FF00109303012
:104910000990504601F03AF95946049A0546204656
:1049200001F052F9C3688046002B3CD02046414636
:1049300000F0ECFE289A59EA020203D10E9B002BEC
:1049400000F0F881002DC0F2A381289B2B4303D1F6
:104950000E98002800F09C81B9F1000F00F3D78178
:10496000099A06F8012BB0460F980D99331A8B421D
:1049700000F0C9810A2251460023204600F0E2FEE1
:10498000049A9742824622D039460A2200232046C2
:1049900000F0D8FE04990A2200230746204600F0C2
:1049A000D1FE0490ACE75046414601F0EFF8814655
:1049B000BCE72046394600F0A9FEA4E41C23129A65
:1049C000F6180E98D2181292C0180E90E7E53946E4
:1049D00020460A22002300F0B5FE074604908FE728
:1049E0006E42002E00F0208106F00F0348F61062A0
:1049F000C0F60002DDE90A0102EBC303D3E900239C
:104A000002F0D0FF3611CDE90A0100F00D8148F621
:104A1000D8674FF00208C0F6000702460B4616F0B2
:104A2000010F1046194607D0D7E9002308F1010805
:104A300002F0B8FF02460B4608377610EFD1CDE9F9
:104A40000A23FFF7D1BB09F1FF321892189F48F6ED
:104A50001061C0F60001DDE910230F9E01EBC701D4
:104A6000D1E9000102F09EFFCDE91001DDE90A0164
:104A700003F032FA074602F02FFF0B460246DDE94B
:104A80000A0102F0DBFDB9F1010F07F13003CDE9B6
:104A90000A0106F8013B2ED00F98CDF868B0D34636
:104AA000431E07469944DDE90A011B95B2464D466F
:104AB000264600230022C4F2240302F073FF894635
:104AC000804603F009FA044602F006FF303402463D
:104AD0000B464046494602F0B1FD07F8014FAF4290
:104AE000E7D1CDE90A013446189956461B9DDA46AE
:104AF000DDF868B0761800230022C3F6E073DDE924
:104B0000100102F09DFD02460B46DDE90A0103F0AB
:104B1000D9F900287FF4C5AC0021DDE9102300207D
:104B2000C3F6E07102F08AFD02460B46DDE90A0198
:104B300003F0AAF900283FF400AC33461E46013BBF
:104B400016F8012C302AF9D0199DFFF7E0BB0F9819
:104B5000FFF7F9B9DBF810300BEB8303186900F0AD
:104B60007DFEC0F1200308E55046594601F00EF8DD
:104B70000028BFF629AD514620460A22002300F046
:104B8000E1FD013D82461498002840F0E980139A27
:104B90000D9219E5012213920D922992FFF7D8BACE
:104BA0000F9E0127DDF83490049502E000F0CAFD65
:104BB000824659465046FFF7EFF80A2200234F4538
:104BC000514607F1010700F13005204606F8015B68
:104BD000B046EBDB09950027049D51460122204693
:104BE00000F07EFF5946824600F0D0FF00280FDD1E
:104BF0000F9A464608F1FF3816F8013C392B62D16E
:104C00004245F6D10F99312301350B70FFF76ABB8E
:104C100003D1099810F0010FEAD1464618F8013D7A
:104C2000302BFAD0FFF75EBB4FF00208FFF7DCBA7B
:104C30005446099DDDF834A0FFF769BB5146204674
:104C40005A4600F0FBFE82467FE45146204600F0C3
:104C5000F5FE824679E4179F002F4ED003F5866358
:104C60005F460333129E16E54FF0000BCDF828B0D7
:104C7000FFF734BB4B1C199DDBB21370FFF747BB2A
:104C8000DDF860A00A9C0CE4129B9E1A002302E54A
:104C9000B9F1000F0A9D0FDD51460122204600F0B8
:104CA0001FFF5946824600F071FF002852DD099A25
:104CB000392A38D001320992049B09980A9306F8E0
:104CC000010BFFF70FBB013388F80030FFF70ABB79
:104CD0000A9F2046796800F0E5FC3A6907F10C016B
:104CE0000232920006460C30FDF7DEFA20463146CD
:104CF000012200F0F5FE0490FCE51D9B5F46129E2C
:104D0000C3F13603C7E4049B0A9D0A9365E709993A
:104D10000A9D392907D0049909980A91431C06F87D
:104D2000013BFFF7DFBA049AB04639230A9208F82C
:104D3000013B5DE709982B460A9D3928F3D0002BEB
:104D400001DD013009900499099A0A9106F8012BB6
:104D5000FFF7C8BAB0D1099911F0010FACD0A6E79E
:104D60000A9920460A22002300F0ECFC13990D91C9
:104D70000A9029E43FF413AC1C3320E60D990E2968
:104D80008CBF002707F00107FFF7E5B90127FFF700
:104D900065B900BFAFF30080F8B540F29014C2F2DD
:104DA00000040F46054600F079FCA3685E6826F013
:104DB000030606F57E630F33DF1B3F0B013F3F0306
:104DC000B7F5805F07DB0021284601F043F9A368AF
:104DD0009B19984204D0284600F062FC0020F8BDE0
:104DE0007942284601F036F9B0F1FF3F10D042F683
:104DF000E463A168C2F20003F61B284646F00106F0
:104E00001A684E60D71B1F6000F04AFC0120F8BDF5
:104E10000021284601F01EF9A368C21A0F2ADADD24
:104E200040F2985442F6E461C2F20004C2F200017A
:104E300042F001025A602368C01A0860CBE700BF45
:104E40002DE9F0410D460446002958D000F026FC1B
:104E5000A5F1080240F290105668C2F2000026F058
:104E60000103D0F808C0D1188C454F6827F003071C
:104E700065D016F001064F6031D00026CD196D685F
:104E800015F0010F06D1DB19002E4BD08D68C968D3
:104E9000E9608D6043F00101D3505160D6B9B3F59C
:104EA000007F2ED3590A04296BD89E093836F500A5
:104EB0004519A968A94203D169E089688D4204D0E7
:104EC000486820F003008342F7D3CB68D360916039
:104ED000CA609A602046BDE8F04100F0E1BB55F899
:104EE000085C00F1080C521B5B199568654546D0BB
:104EF000D2F80CC0C5F80CC0CCF80850BEE7BDE82D
:104F0000F081DB080125466800EBC3019B1015FA10
:104F100003F3D1608D6846EA030343609560EA605D
:104F20008A60D7E78D682B4FBD42B0D1EA6043F06D
:104F30000101AA60D56095605160D350CAE716F0B0
:104F4000010F3B4407D155F8081C521A5B189568AD
:104F5000D168E9608D6040F29C5143F00105C2F2D6
:104F60000001556082600A689342B3D342F6E06361
:104F70002046C2F200031968FFF70EFFAAE70126D8
:104F80007CE714290CD801F15B06F50090E70125B8
:104F90004768B6100B46B54047EA0505456095E7FA
:104FA000542903D81E0B6E36F50081E7B1F5AA7FB0
:104FB00003D8DE0B7736F5007AE740F25455A94264
:104FC00003D89E0C7C36F50072E74FF47C757E2684
:104FD0006EE700BF9801002010B514463AB148F6BC
:104FE000F4511046C0F6000101F048F820B948F627
:104FF000F050C0F6000010BD48F6F0512046C0F653
:10500000000101F03BF820B948F6F050C0F600006E
:1050100010BD48F6BC512046C0F6000101F02EF844
:1050200048F6F053C0F6000300280CBF18460020D5
:1050300010BD00BF40F21410C2F20000704700BF64
:1050400040F21413C2F20003186A70470048704718
:1050500038010020002070470048704758010020A8
:1050600040F220030A46C2F2000301461868B3E783
:10507000004870475801002040F220030146C2F268
:105080000003186800F008B840F220030146C2F29D
:1050900000031868FFF7D4BE2DE9F04F01F10B04AF
:1050A000162C83B0064631D924F00704E30F8C4256
:1050B0002CBF194643F00101002930D1304600F0E1
:1050C000EDFAB4F5FC7F2FD24FEAD40C40F29015E4
:1050D000C2F2000505EBCC022F46D368934200F0E4
:1050E0002D825C6803F10808DA68304624F0030476
:1050F00099681B195C68CA6044F0010491605C60A7
:1051000000F0CEFA404603B0BDE8F08F0023102433
:105110008C422CBF194643F001010029CED00C234C
:105120004FF000083360EDE75FEA542C04BF4FEA0C
:10513000D40C4FEACC0040F0868040F29015C2F2C9
:10514000000528182F46C368984206D10DE00029B3
:1051500080F27981DB68984207D05A6822F0030216
:10516000111B0F29F3DD0CF1FF3C0CF1010CBD4AC2
:1051700093689A4208BF786824D0586820F00300EA
:10518000011B0F2900F3C0810029D260926080F2D8
:105190009480B0F5007F80F07781C0084FF0010E59
:1051A000D7F8048007EBC00180100EFA00F0D96038
:1051B000D1F808E040EA08007860C3F808E0CEF8CB
:1051C0000C308B604FF0010E4FEAAC030EFA03FE79
:1051D00086457DD810EA0E0F08D12CF0030C4FEA5B
:1051E0004E0E0CF1040C10EA0E0FF8D007EBCC0AAF
:1051F000E146D046D8F80C00804507D196E1002B57
:1052000080F2A681C068804500F09081416821F05D
:1052100003010B1B0F2BF2DD8046C568011944F01A
:10522000010E58F8087F43F00104C0F804E030464E
:105230004C60FD60AF60D1609160CA608A60CB5005
:1052400000F02EFA5EE7BCF1040F9EBF4FEA941CFB
:105250000CF1380C4FEACC007FF66FAFBCF1140FA5
:105260009CBF0CF15B0C4FEACC007FF666AFBCF143
:10527000540F9EBF4FEA143C0CF16E0C4FEACC0069
:105280007FF65BAFBCF5AA7F9EBF4FEAD43C0CF122
:10529000770C4FEACC007FF650AF40F254539C4558
:1052A00095BF4FEA944C4FF47C700CF17C0C4FF09E
:1052B0007E0C98BF4FEACC003FE71A1803F10808AC
:1052C0003046536843F00103536000F0E9F919E7F1
:1052D000D7F80880D8F8043023F003094C45C4EB14
:1052E000090294BF002301230F2AD8BF43F0010312
:1052F000002B00F0B98042F6E06AD5F80834C2F21B
:10530000000A3046B3F1FF3FDAF8002002F1100B3B
:10531000A3441FBF0BF57E6B0BF11F0B2BF47E6BB1
:105320002BF01F0B594600F095FEB0F1FF3F0346EE
:1053300000F0188108EB0901814200F21081DAF8CF
:10534000042081425A44CAF8042000F03E81D5F876
:1053500008E440F29015C2F20005BEF1FF3F17BF0E
:105360008218C5F80804C1EB0201CAF8041010F055
:10537000070517BFC5F108054FF48055431905F51A
:10538000805503EB0B02304601931205120DAD1A46
:10539000294600F05FFE019BB0F1FF3F00F02C8139
:1053A000C11A491941F00101DAF80420B84542F662
:1053B000E06BBB602A44C2F2000B5960CAF80420BB
:1053C00017D0B9F10F0F40F2E180A9F10C03D8F822
:1053D000045023F00703052008EB03010F2B05F011
:1053E000010543EA0505C8F804504860886000F2EA
:1053F000FB80DAF82C1042F6E063C2F200038A4226
:10540000DAF8301088BFDA6242F6E0638A42C2F20C
:10541000000340F2A780D7F808801A63D8F8043058
:1054200023F003039C42C4EB030294BF0023012337
:105430000F2AD8BF43F00103B3B130464FF0000844
:1054400000F02EF95EE69A18D9689C6803F1080806
:105450005568304645F00103E1608C60536000F010
:105460001FF94FE69801002008EB040342F0010207
:1054700044F001043046C8F8044008F108085A60B6
:10548000BB6000F00DF93DE6410A04299CBF4FEADC
:10549000901E0EF1380E1DD9142998BF01F15B0E34
:1054A00018D954299CBF4FEA103E0EF16E0E11D947
:1054B000B1F5AA7F9CBF4FEAD03E0EF1770E09D915
:1054C00040F2545E714596BF4FEA904E4FF07E0E0B
:1054D0000EF17C0E07EBCE08D8F80810414503D139
:1054E00047E08968884505D0D1F804E02EF0030E26
:1054F0007045F6D3D1F80CE0C3F80CE099607868F9
:10550000CB60CEF808305DE61D1941F00107D5608B
:1055100044F00104956030465C6003F10808EA60DD
:10552000AA606F60695000F0BBF8EBE509F1010972
:1055300019F0030F2FD008F108085BE603F1080209
:105540005B699A4208BF0CF1020C3FF410AEC8E54B
:1055500080464318C268304658F8081FCAE5B84567
:105560003FF4EDAED7F80880D8F8043023F00303F9
:1055700058E74FF00109D7F804804FEAAE008E4695
:1055800009FA00F048EA00007860B5E79846012281
:105590005A60002346E751461CF0030F0B460CF1FE
:1055A000FF3C2CD053F808199942F5D07B684FEA9C
:1055B0004E0E9E453FF68CAEBEF1000F3FF488AE16
:1055C0001EEA030F20D0CC4610E64FEA015E4FEAF8
:1055D0001E5EBEF1000F7FF4BAAEBB680BEB090193
:1055E00041F00101596004E7304608F10801FFF776
:1055F00027FCDBF80420FCE601210025D4E67B68CB
:1056000023EA0E037B60D1E74FEA4E0E09F104094D
:10561000D6E700BF10F0030F034670B4C9B210D034
:1056200002B303788B421ED0013A013005E0CAB1C3
:1056300010F8014B013A8C4217D010F0030F0346CB
:10564000F5D1032A13D86AB1187888420DD0013AEF
:105650005C1C04E014F8015B013A8D4203D0204643
:10566000002AF7D1104670BC70471846FBE741EAA4
:10567000012646EA0646184653F8044B86EA040417
:10568000A4F1013525EA040414F0803F03D1043A63
:105690001846032AEFD80346D5E700BF704700BF7E
:1056A000704700BF70B50646446A0D465CB1E368BA
:1056B0009BB153F82500E0B1026843F82520002390
:1056C0000361C36070BD1020FFF7D6FC00230446C1
:1056D0007062436083600360C3603046042121220E
:1056E00001F0DCFB736AE060DB68002BE1D1184657
:1056F00070BD012430462146AC40621D920001F08D
:10570000CDFB0028F4D045608460D8E730B504466E
:10571000456A83B055B139B1636A4A68DB6853F8AA
:105720002200086043F8221003B030BD1020019120
:10573000FFF7A2FC01996062456085600560C56065
:10574000E9E700BF2DE9F0410C4605460E6901F17D
:10575000140082B00021076801311FFA87FC3F0C5A
:105760000CFB023307FB02F707EB13471FFA83FC1E
:105770003B0C8E424FEA074808EB0C0740F8047BCD
:10578000E9DC3BB1A268964208DA04EB86020136F6
:1057900026615361204602B0BDE8F0816168284669
:1057A00001930131FFF77EFF226904F10C010232FF
:1057B000920007460C30FCF777FD214628463C4610
:1057C000FFF7A4FF019BE0E72DE9F84348F63964B1
:1057D0001E46C3F6E304083388460546174684FB95
:1057E0000314DB17C3EB6403012B34DD012200211A
:1057F000520001319342FBDC2846FFF753FF089B20
:1058000043610123092F0146036120DD08F10909E5
:10581000092418F804300A2228460134303BFFF7E7
:1058200091FFA7420146F4DC09EB0708A8F108083C
:1058300008E018F8013B28460A220137303BFFF701
:1058400081FF0146BE42F4DC0846BDE8F88308F15A
:105850000A080927F6E70021CEE700BF020C03463D
:1058600019D10304102013F07F4F01D108301B021F
:1058700013F0704F01D104301B0113F0404F01D1E0
:1058800002309B00002B05DB13F0804F01D001306C
:105890007047202070470020E5E700BF03680246FC
:1058A00013F0070009D013F0010F21D113F0020FFC
:1058B00022D19B0802201360704799B209B91B0CD2
:1058C000102013F0FF0F01D108301B0A13F00F0F47
:1058D00001D104301B0913F0030F01D102309B08E2
:1058E00013F0010F02D15B0804D001301360704740
:1058F00000207047202070475B080120136070472C
:1059000010B50C460121FFF7CDFE01224461026172
:1059100010BD00BF2DE9F04F0D460F6985B0166927
:105920009046B74204DA3A46454637468846164618
:10593000AB68F41969689C42C8BF0131FFF7B2FE39
:1059400000EB840300F1140C143301909C45029386
:1059500006D202996346002243F8042B9942FBD8F1
:1059600008EB860605EB870708F114081436143592
:105970001437B04500954DD2039458F8044BA0B2AB
:10598000F0B1009A6346002452F8045B19681FFACC
:1059900085FA2D0C1FFA81F9090C00FB0A9900FB0E
:1059A0000511A14401EB19411FFA89F90C0C97422A
:1059B00049EA014543F8045BE6D81C6058F8044CFA
:1059C000240C21D0DCF800206046009BE146114603
:1059D0000025B3F800A01FFA82FB0AFB045505EB73
:1059E00011454BEA054240F8042B53F8042B59F8B3
:1059F000041F120C1FFA81FA02FB04A202EB1542EB
:105A0000150C9F42E5D80260464502D90CF1040C02
:105A1000B3E7039C002C0BDD02990B1F51F8042CFB
:105A20001AB105E053F8042D12B9013C002CF9DC41
:105A3000019A1046146105B0BDE8F08F12F003031F
:105A40002DE9F04115460446884628D1AD101AD0FC
:105A5000666A002E2FD0B7682FB936E06D1012D0CD
:105A60003E689EB1374615F0010FF7D041463A46E1
:105A70002046FFF74FFF414606462046FFF746FE09
:105A80006D10B046ECD14046BDE8F08139463A464B
:105A90002046FFF73FFF386007460660E3E748F619
:105AA00000625E1EC0F60002002352F82620FFF7B7
:105AB00049FE8046CAE71020FFF7DEFA00230646BB
:105AC0006062436083600360C360204640F27121DE
:105AD000FFF716FF0023B06007460360C3E700BF6F
